:100000000C9435000C945D000C945D000C945D0024
:100010000C945D000C945D000C945D000C945D00EC
:100020000C945D000C945D000C945D000C945D00DC
:100030000C945D000C945D000C945D000C945D00CC
:100040000C9409050C945D000C9479050C945305EF
:100050000C945D000C945D000C945D000C945D00AC
:100060000C945D000C945D00050C11241FBECFEFB5
:10007000D8E0DEBFCDBF26E0AAE4B2E001C01D9209
:10008000AE3DB207E1F712E0A0E0B1E0E6E2F9E14F
:1000900002C005900D92AA34B107D9F710E0C5E36C
:1000A000D0E004C02197FE010E94800CC433D10728
:1000B000C9F70E94B7050C94910C0C94000083E2E0
:1000C00090E00197F1F7089580E480937C0080919F
:1000D0007A00806480937A0080917A0086FDFCCF5C
:1000E000809178009091790008953FB7F8948091BD
:1000F0007B0290917C02A0917D02B0917E0226B598
:10010000A89B05C02F3F19F00196A11DB11D3FBF4F
:10011000BA2FA92F982F8827BC01CD01620F711D1E
:10012000811D911D42E0660F771F881F991F4A9518
:10013000D1F708958F929F92AF92BF92CF92DF92A4
:10014000EF92FF924B015C010E9475006B017C01F4
:100150000E9475006C197D098E099F09683E7340E5
:1001600081059105A8F321E0821A9108A108B10840
:1001700088EEC80E83E0D81EE11CF11C81149104A6
:10018000A104B10429F7FF90EF90DF90CF90BF90CA
:10019000AF909F908F9008952FB7F8946091770259
:1001A000709178028091790290917A022FBF089520
:1001B000FC01218D328D838D948DA901481B590B33
:1001C000CA0193700895AF92BF92CF92DF92EF92DF
:1001D000FF920F931F93CF93DF936C017B018B01F1
:1001E000040F151FEB015E01AE18BF08C017D10741
:1001F00059F06991D601ED91FC910190F081E02DCB
:10020000C6010995892B79F7C501DF91CF911F911F
:100210000F91FF90EF90DF90CF90BF90AF90089537
:10022000209198023091990280919A0290919B02BC
:10023000281B390B337081E0232B09F480E00895EB
:1002400080E090E0892B29F00E94100181110C942C
:1002500000000895FC01558D468D252F30E0842F38
:1002600090E0821B930B541710F0CF9608950197DE
:100270000895FC01218D328D838D948D28173907C7
:1002800079F0A38DB48DAE0FBF1F5F968C91238D37
:10029000348D2F5F3F4F3370348F238F90E008955C
:1002A0008FEF9FEF0895FC01218D328D838D948D0A
:1002B0002817390739F0838D948DE80FF91F878D42
:1002C00090E008958FEF9FEF0895FC01A68DA80F91
:1002D000B92FB11DA15EBB4F2C91868D90E0019688
:1002E0008F739927868FA689B7892C93A089B189A6
:1002F0008C91837080648C93958D868D981306C045
:100300000288F389E02D80818F7D80830895EF92AC
:10031000FF920F931F93CF93DF93EC0181E0888FBF
:100320009D8D8E8D98131AC0E889F989808185FF8B
:1003300015C09FB7F894EE89FF896083E889F98931
:1003400080818370806480839FBF81E090E0DF9133
:10035000CF911F910F91FF90EF900895F62E0D8D84
:1003600010E00F5F1F4F0F731127E02E8E8D8E113F
:100370000CC00FB607FCFACFE889F989808185FFA8
:10038000F5CFCE010E946501F1CFED8DEC0FFD2F71
:10039000F11DE15EFB4FF0829FB7F8940D8FEA8963
:1003A000FB8980818062CFCF682F8FE792E00C9429
:1003B0008701CF93DF93EC01888D8823B9F0AA8958
:1003C000BB89E889F9898C9185FD03C0808186FD10
:1003D0000DC00FB607FCF7CF8C9185FFF2CF80815F
:1003E00085FFEDCFCE010E946501E9CFDF91CF916E
:1003F00008952091C00025FFFCCF9093C6009091F6
:10040000C00095FFFCCF8093C6000895CF92DF9285
:10041000EF92FF92CF936B017C01CFEFC40F24E0EA
:10042000C202C0011124A701960104C05695479548
:10043000379527958A95D2F72F70822F90E02A3032
:1004400058F4C0960E94D401C15048F7CF91FF9054
:10045000EF90DF90CF900895C796F4CF0F931F933E
:10046000FC011082118212821382DB018D91806265
:1004700090ED980F9A3030F09FE9980F9630C0F4C5
:1004800099EA980F008111812281338184E0000F65
:10049000111F221F331F8A95D1F7092B0083118367
:1004A00022833383415011F781E01F910F9108950A
:1004B00080E0FBCF57985F9808955F98579A08950A
:1004C00055985D9808955D98559A08958F929F92DA
:1004D000AF92BF92CF92DF92EF92FF926C010E9497
:1004E000CC004B015C01F12CE12C4C990BC00E941B
:1004F000CC00681979098A099B096C157D058E0560
:100500009F0598F389B182958170FF90EF90DF90FD
:10051000CF90BF90AF909F908F9008958F929F92B1
:10052000AF92BF920F931F93CF93DF93CDB7DEB7F8
:10053000A1970FB6F894DEBF0FBECDBF19A242300F
:1005400008F44AE08E010F5D1F4F842E912CB12CD0
:10055000A12CA50194010E94570CE62FB901CA01F4
:10056000EA3044F5E05DD801EE938D01232B242B76
:10057000252B79F790E080E0109769F0FD0101905C
:100580000020E9F73197AF014A1B5B0BBD018FE7F4
:1005900092E00E94E300A1960FB6F894DEBF0FBE72
:1005A000CDBFDF91CF911F910F91BF90AF909F90E2
:1005B0008F900895E95CD7CF009769F0FC01019016
:1005C0000020E9F73197AF01481B590BBC018FE7B9
:1005D00092E00C94E30090E080E00895462FFC0147
:1005E00060817181828193810E9406028BE391E098
:1005F0000C94DC02BC01990F880B990B4AE00C9417
:100600008E02CF93DF930E94640028E833E1DC017F
:100610000E94790C2FEF33E040E050E00E94570C2D
:10062000E90180E391E00E94DC02CE0168EE73E014
:100630000E94430CEC0190E080E04AE00E948E02B0
:100640008EE290E00E94D401C436D10520F480E30C
:1006500090E00E94D401CE016AE070E00E94430C59
:1006600090E080E04AE00E948E0285E391E0DF9115
:10067000CF910C94DC02539A5D985B9829B15D9AF6
:1006800030E1442755275D9897FD5B9A97FF5B986B
:10069000880F991F440F551F4A9941605D9A3A95FA
:1006A00091F753985B9822FB882780F990E0B0E09F
:1006B000A0E0DC019927882770E060E0842B952B6F
:1006C000A62BB72B80934A0290934B02A0934C0227
:1006D000B0934D020895FF920F931F93CF93DF9332
:1006E000EC018B01FF24FA94C8010E943B03809126
:1006F0004A0290914B02A0914C02B0914D0200979A
:1007000021E0A207B10529F4FA94F11012C080E0AB
:100710000AC0009721E0A207B105C8F78883998332
:10072000AA83BB8381E0DF91CF911F910F91FF904E
:100730000895809152029091530201969093530232
:1007400080935202D1CFCF92DF92EF92FF92C0906E
:100750004A02D0904B02E0904C02F0904D0290E0A3
:1007600080E00E943B0390E080E00E943B0390E029
:1007700080E00E943B0390E080E00E943B03C09237
:100780004A02D0924B02E0924C02F0924D0281E478
:10079000815031F05D985B9899B15D9A92FDF8CFE8
:1007A00081E4815031F05D985B9899B15D9A92FF38
:1007B000F8CF8FE05D985B9899B15D9A8150D1F741
:1007C000FF90EF90DF90CF900895CF92DF92EF925D
:1007D000FF921F93CF93DF93EC014C9B15C06901EF
:1007E0007A01972F162F862F0E943B0380914A0291
:1007F00090914B02A0914C02B0914D020197A14003
:10080000B10520F00E94A30387E062C0209731F574
:1008100017FD46C0C6010E943B0380914A02909199
:100820004B02A0914C02B0914D02CFEF0197A14035
:10083000B10540F790E080E00E943B0380914A02BE
:1008400090914B02A0914C02B0914D02009721E093
:10085000A207B105B1F5C15069F7D4CF8A819B8158
:100860000E943B0380914A0290914B02A0914C025E
:10087000B0914D020197A140B10520F68881998180
:100880000E943B0380914A0290914B02A0914C023E
:10089000B0914D020197A140B10508F4B9CFB2CF94
:1008A000C7010E943B0380914A0290914B02A091A4
:1008B0004C02B0914D020197A140B10508F4AACFB6
:1008C000A1CF8F3F9F4FA105B10509F09BCF8DE0D0
:1008D000DF91CF911F91FF90EF90DF90CF9008951F
:1008E0009B01AC01211531054105510531F480E032
:1008F0009CE00E943B038DE0089560E874E290E084
:1009000080E00E94E5038D3091F387E00895DF9247
:10091000EF92FF920F931F93CF93DF9300D000D0FD
:10092000CDB7DEB78C014C9B67C07A01972FD62ECE
:10093000F8011082118212821382862F0E943B03DB
:1009400080914A0290914B02A0914C02B0914D02CD
:100950000197A140B10508F04DC0E114F10439F54B
:1009600032E0F32ED7FC02C0FF24F39470E060E085
:10097000CE0101960E946B038823E1F1F80180818A
:100980009181A281B381DC019927882749815A810D
:100990006B817C81842B952BA62BB72B8083918335
:1009A000A283B383F1E0FF12DFCF8DE026C0F70111
:1009B000828193810E943B0380914A0290914B0275
:1009C000A0914C02B0914D020197A140B10590F465
:1009D000F701808191810E943B0380914A029091AE
:1009E0004B02A0914C02B0914D020197A140B1057C
:1009F00008F4B6CF0E94A30387E00F900F900F90EA
:100A00000F90DF91CF911F910F91FF90EF90DF90AA
:100A100008951F920F920FB60F9211242F933F93B8
:100A20008F939F93AF93BF938091770290917802B9
:100A3000A0917902B0917A023091760223E0230FDF
:100A40002D3768F126E8230F0296A11DB11D2093D2
:100A500076028093770290937802A0937902B09304
:100A60007A0280917B0290917C02A0917D02B091EC
:100A70007E020196A11DB11D80937B0290937C02A2
:100A8000A0937D02B0937E02BF91AF919F918F9111
:100A90003F912F910F900FBE0F901F9018950196C8
:100AA000A11DB11DD4CF1F920F920FB60F9211242A
:100AB0002F933F934F935F936F937F938F939F9366
:100AC000AF93BF93EF93FF938FE792E00E9465018E
:100AD000FF91EF91BF91AF919F918F917F916F9116
:100AE0005F914F913F912F910F900FBE0F901F90EC
:100AF00018951F920F920FB60F9211242F934F93B8
:100B00005F938F939F93EF93FF93E0918F02F09108
:100B100090028081E0919502F091960282FD25C0BD
:100B20002081809198029091990201969370409152
:100B30009A0250919B028417950759F0E091980210
:100B4000F0919902E158FD4F278F9093990280937D
:100B50009802FF91EF919F918F915F914F912F910B
:100B60000F900FBE0F901F9018958081F2CFCF93FA
:100B7000DF93CDB7DEB7A4970FB6F894DEBF0FBEF4
:100B8000CDBF789484B5836084BD85B5836085BD11
:100B900080916E00816080936E0092E0909381005E
:100BA00080918100816080938100809180008160CC
:100BB000809380008091B10084608093B100809127
:100BC000B00081608093B00087E880937A00109233
:100BD000C100E0918F02F09190029083E0918B022E
:100BE000F0918C021082E0918D02F0918E0281E0F2
:100BF000808310929702E0919302F091940286E034
:100C00008083E0919102F0919202808188698083D3
:100C1000E0919102F091920280818F7D808388EE35
:100C200093E0A0E0B0E08093830290938402A093CD
:100C30008502B09386028AB183708AB98BB18370C2
:100C40008BB99E012F5F3F4F1901809198029091BF
:100C5000990220919A0230919B02821B930B937010
:100C6000892B09F4E0C08FE792E00E9439018D30B2
:100C700009F098C5F0907502EF2DF0E0EB5AFD4FAA
:100C8000108231E03F15A8F4809155021091560270
:100C90001D8E1E8E1F8E18A2198E1A8E1B8E1C8EF4
:100CA0000EEF0F0D833609F450C12CF4813609F490
:100CB00083C007E027C28D3609F461C28237C9F7C5
:100CC000143609F0F6C40111F4CF8FE891E00E94C8
:100CD000DC0210E000E050E040E0B80160687162C2
:100CE000C1010E9487048D3021F780E290E00E94CC
:100CF000D40169817A818B819C8148E00E9406023F
:100D00000F5F1F4F0830110531F785E991E00E9410
:100D1000DC0250E040E0B80160687162C1010E94ED
:100D200087048D3031F680E290E00E94D401698121
:100D30007A818B819C8148E00E9406020F5F1F4FE1
:100D40000031110531F786E2A82E81E0B82E92E13C
:100D5000E92E91E0F92E20E3C22E21E0D22EF501FA
:100D600061915F016F7070E06068756250E040E013
:100D7000C1010E948704082F8D3009F09ACF8DE9B8
:100D800091E00E94DC02D7018D919D917D010E942E
:100D9000DC0280E290E00E94D40169817A818B813B
:100DA0009C8148E00E940602CA14DB04C1F68BE372
:100DB00091E00E94DC0230C001117BCF153309F4B1
:100DC000BFC09CF4123309F4B5C034F4113309F0F8
:100DD00070CF0E9463021FC0133309F4AEC01433F6
:100DE00009F067CF0E945A0216C0143609F490C069
:100DF0004CF4163309F4A7C0173309F05ACF5698AC
:100E00005E9809C01337E1F087E391E0163709F0E7
:100E100050CF0E94DC020DE0602F8FE792E00E942D
:100E200087011092750280E090E0892B09F40DCFC4
:100E30000E941001882309F408CF0E94000005CF0A
:100E40000E9401038EE391E00E94DC0289B1829549
:100E5000817090E00E94FA0288E491E00E94DC0236
:100E600089B1082E000C990B892F881F8827881FAD
:100E700090E00E94FA0281E591E00E94DC0289B1D3
:100E800085FB882780F990E00E94FA0289E591E0CD
:100E90000E94DC0289B182FB882780F990E00E94E1
:100EA000FA0280E691E00E94DC026091540270E058
:100EB00090E080E04AE00E948E0287E691E00E9486
:100EC000DC02609152027091530290E080E04AE0AF
:100ED0000E948E02109253021092520282E791E019
:100EE0000E94DC0260914E0270914F02809150028C
:100EF000909151024AE00E948E0210924E0210928E
:100F00004F0210925002109251028BE391E081CF78
:100F10004C9BCFCE90E080E00E943B0360914A0260
:100F200070914B0280914C0290914D0245E00E94DD
:100F30000602EBCF5D9A559A6ECF0E945D026BCF91
:100F40005E98569A68CF5E9AFCCF123609F459C063
:100F500084F4123581F1133509F0ABCE0E9463029F
:100F60008AE090E00E946602811155CF0E946002E3
:100F7000A0CE1337B9F1173709F454C0123709F06E
:100F800098CE083009F095CE48E067E572E0CE01D2
:100F90004D960E942E02882309F48BCE4C9B89CE5D
:100FA0006D8D7E8D8F8D98A10E947004082F8D30DD
:100FB00009F432CFA7C00E9460020E945D026AE07D
:100FC00070E080E090E00E949A000E945A026AE07D
:100FD00070E080E090E00E949A004F9B6ACE4C99AE
:100FE00068CE19CF0E9463020E945D0269E170E041
:100FF00080E090E00E949A000E945A0284EF91E003
:10100000B1CF4C9B56CE80E09CE00E943B030E94F7
:1010100063026AE070E080E090E00E949A004C99E0
:10102000FACEA4CF80ED97E0A0E0B0E0898F9A8F50
:10103000AB8FBC8F8F2D8B7F8A3009F03ACE48E082
:1010400067E572E0CE014D960E942E02882309F4D6
:1010500030CE0C3051F444E06FE572E0CE01499699
:101060000E942E02882309F424CE4C9B22CEC98CE8
:10107000DA8CEB8CFC8C6D8D7E8D8F8D98A10E940F
:1010800070048D3009F015CE0E94CC004B015C013C
:101090004C9B0BC00E94CC00681979098A099B09F6
:1010A000653071058105910598F3260137016624A5
:1010B00077240E94CC00DC01CB0188199909AA0988
:1010C000BB0984159505A605B70508F0F2CDF60114
:1010D000E81BF90BCF010E946602882309F4E9CDD1
:1010E00010E04C9B44C0143109F045C050E040E092
:1010F00060E871E2C1010E948704082F68E08D302A
:1011000009F46FC110915502612F012E000C770B6D
:1011100081EA91E00E94860C892B09F47DCE1D3670
:1011200061F460915602062E000C770B82E891E084
:101130000E94860C892B09F06FCE4C9902C30E9445
:10114000640028E833E1DC010E94790C2FEF33E0E2
:1011500040E050E00E94570C203A3F4008F0E7C2C0
:1011600085EA91E00E94DC020E94010320CE143146
:1011700009F09FCFBBCF0E945F001F5FB2CFC12E8F
:10118000012E000CDD08B6018CE791E00E94860C70
:10119000892B09F4D3C0083008F48BCD48E067E50B
:1011A00072E0CE014D960E942E0206EF0F0D3FE534
:1011B000E32E32E0F32E882309F47BCDB60185E8D7
:1011C00091E00E94860C892B09F0BDC0B6018AE827
:1011D00091E00E94860CF0E8CF2EA8E0DA2E892B51
:1011E00021F080E4C82E94E0D92E173509F4B8C058
:1011F0000CF0D5C0163409F408C10CF0A8C01234A4
:1012000009F4AEC0143409F054CD043009F051CDC6
:1012100044E0B701CE0149960E942E02D82E8823C1
:1012200009F447CD898C9A8C4D8C5E8C6F8C78A09C
:10123000133509F007C1BB24B394F1E08F16F4E035
:101240009F0608F0B12C8114910409F4F7C040FC0A
:101250000CC0E4E0CE2E24E08216910440F472E04B
:10126000C72E31E08316910411F4CC24C394EC2CE6
:10127000F12C3AA229A210E000E00E94CC00609379
:101280008702709388028093890290938A028FE785
:1012900092E00E94390197FF96C20E94CC002091F3
:1012A0008702309188024091890250918A02621B24
:1012B000730B840B950B2091830230918402409133
:1012C0008502509186026217730784079507F8F22A
:1012D000E016F10609F0EDCCBB2041F1F10120E070
:1012E00030E0A901542F432F322F22278191282B40
:1012F0008E2F82198C15B0F384E060E8C81621F0B7
:1013000092E060E4C91260E070E0DD2009F492C070
:101310004D865E866F86788A7861CE010D960E9432
:10132000E503BB24B3948D3009F0B12C4C0C511C57
:10133000611C711C8E189F08D12C85CF27E5E22EE9
:1013400022E0F22E3BCFC12CB2E0DB2E4ECF1D347B
:1013500009F45BC0133509F458CF1C3409F0A9CC4B
:101360000D11A7CC402FB701CE0149960E942E0245
:10137000882309F49ECC298D3A8D4B8D5C8D8D8D03
:101380009E8DAF8DB8A1898B9A8BAB8BBC8B6C2D4E
:1013900070E07861CE0141960E94E50307CE1C36CD
:1013A00041F01CF5133649F1163679F1123609F081
:1013B00080CC01117ECC8D8D9E8DAF8DB8A18D8B93
:1013C0009E8BAF8BB88F6C2D70E07961AE014B5E58
:1013D0005F4FC1010E948704082F8D3009F092CE23
:1013E0006D2DC1010E94EE0216CD183731F01A376B
:1013F00021F0173709F05DCCDCCF01115ACC6C2DF0
:1014000070E07D6150E040E0E4CF0D1152CC402F00
:10141000B701CE0149960E942E02882309F449CCD7
:10142000298D3A8D4B8D5C8D6C2D70E07C6190E048
:1014300080E0B2CF7C6190E080E071CFBB2009F406
:1014400038CCE9CC40FCDCC0840116950795169594
:1014500007950115110509F4D3C08FE792E00E94AA
:10146000D9010E94750069A37AA38BA39CA34C9B0E
:10147000ACC080E899E10E943B0380914A029091C0
:101480004B02A0914C02B0914D020197A140B105D1
:10149000A8F1F12CE12C0E94A3030E947500AB017E
:1014A000BC0180914E0290914F02A0915002B091E8
:1014B0005102A9A0BAA0CBA0DCA08A199B09AC0953
:1014C000BD09840F951FA61FB71F80934E029093EE
:1014D0004F02A0935002B09351026701C016D1068B
:1014E00008F076C090E080E00E94F90190E080E092
:1014F0000E94F9012FEFC21AD20AF0CFC3010E9455
:101500003B0380914A0290914B02A0914C02B09112
:101510004D020197A140B10508F0BBCFC2010E9466
:101520003B0380914A0290914B02A0914C02B091F2
:101530004D020197A140B10508F0ABCFF12CE12C91
:10154000C0905202D090530280915402882331F00F
:1015500035E03A95F1F700008150F8CF70E060E097
:10156000CE0109960E946B03882309F494CF8091E1
:10157000520290915302C816D90639F08091540254
:10158000883218F48F5F8093540289859A850E946F
:10159000F90167018FEFC81AD80A60E87DE1C0162B
:1015A000D10610F070E060E0C1010E946B03882357
:1015B00009F471CF89819A810E94F90176010C1595
:1015C0001D0509F0BDCF780168CFF12CE12C65CF66
:1015D000CC24C3940E151F0509F0C12C30E020E087
:1015E00042E0000F111F221F331F4A95D1F7400E12
:1015F000511E621E731E33E083229924D12C01C038
:10160000CD2C8114910409F450C040FC0CC014E0AE
:1016100060E884E08816910440F412E060E491E010
:101620008916910411F411E060E019821A821B827C
:101630001C82C11023C019821A821B821C82C12CF9
:101640000FEF010FA8E00A029001112469817A814D
:101650008B819C8104C096958795779567952A958F
:10166000D2F78FE792E00E948701015058F7410EB0
:10167000511C611C711C811A9108C0CF70E0DD20E3
:1016800081F04D825E826F8278867961AE014B5F18
:101690005F4FC1010E948704CC24C3948D3059F65A
:1016A000CFCF7D6150E040E0F4CFCC2009F401CBF6
:1016B000B2CB023008F4FDCA42E067E572E0CE0129
:1016C0004D960E942E02882309F4F3CA0A3009F0CD
:1016D00086C048E069E572E0CE0149960E942E027C
:1016E000882309F4E6CA1735C1F00CF0E2CA1134B8
:1016F00009F0DFCA298D3A8D4B8D5C8D6D8D6F7031
:1017000070E06068706293CE023009F0D2CA6D8DCD
:101710006F7070E06068716275C0298D3A8D4B8D75
:101720005C8D6D8D6F7070E06068746280CE4F99D3
:1017300005C08BEB91E00E94DC0239CB8FEC91E08D
:10174000FACF80914A0290914B02A0914C02B09145
:101750004D0281309105E1E0AE07B10519F48EED3F
:1017600091E0E9CF0097F1E0AF07B10519F48CEEF5
:1017700091E0E1CF8F3F9F4FA140B10519F48AEF6F
:1017800091E0D9CF8EE092E00E94DC0260914A02A3
:1017900070914B0280914C0290914D0245E00E9465
:1017A000060205CB8A3009F43ECBE0917502EF3199
:1017B00008F039CB91E09E0F90937502F0E0EB5A60
:1017C000FD4F808330CBA9A1BAA18D93BAA3A9A361
:1017D0000F5F1F4F0E151F0508F44FCD79CD17353C
:1017E00009F467CA0CF465CA113609F48DCF1237B3
:1017F00009F05FCA023009F05CCA6D8D6F7070E04D
:101800006068756250E040E075CCEFE7F2E013826B
:10181000128288EE93E0A0E0B0E084839583A683F3
:10182000B78384E091E09183808385EC90E0958795
:10183000848784EC90E09787868780EC90E0918B9A
:10184000808B81EC90E0938B828B82EC90E0958B87
:10185000848B86EC90E0978B868B128E118E148E83
:10186000138E158E168E0895A29FB001B39FC001EE
:10187000A39F700D811D1124911DB29F700D811DBC
:101880001124911D0895AA1BBB1B51E107C0AA1F7B
:10189000BB1FA617B70710F0A61BB70B881F991F11
:1018A0005A95A9F780959095BC01CD010895A1E2C4
:1018B0001A2EAA1BBB1BFD010DC0AA1FBB1FEE1FCA
:1018C000FF1FA217B307E407F50720F0A21BB30B15
:1018D000E40BF50B661F771F881F991F1A9469F791
:1018E00060957095809590959B01AC01BD01CF01ED
:1018F00008950E94340CB7FF0895821B930B08953E
:10190000EE0FFF1F0590F491E02D0994FC018191E9
:10191000861721F08823D9F7992708953197CF01A9
:061920000895F894FFCFCA
:10192600000000008701E3002A01D901D80039012F
:1019360053012102250229022F02330237023A02FD
:101946003E0242024602000108090A0B0C0D0E0F68
:1019560056444420005600303130330D0A002C2006
:10196600465245455A4520002C20524553455420A1
:10197600002C20424B505420002C2044534F200072
:101986002C2047415020002C2052455452494553A3
:1019960020002C2044554D505553200062776C4250
:1019A600574C534400627A426600777857460020C7
:1019B60044302D37000D0A2041302D37000D0A2006
:1019C60000636D7200657272206E6F2074617267BB
:1019D600657420706F7765722C20006572722074B2
:1019E600617267657420696E20726573657400653F
:1019F6007272206E6F7420696E2042444D006572CB
:101A06007220627573206572726F72006572722041
:101A16006E6F742072656164790065727220696CFC
:101A26006C6567616C20636F6D6D616E64006572D5
:101A360072206C61737420726573706F6E736520AB
:101A46000052504300504343004154454D50004618
:101A560041520056425200535200555350005353C0
:0A1A6600500053464300444643007D
:00000001FF
