:100000000C945B000C9483000C9483000C9483008C
:100010000C9483000C9483000C9483000C94830054
:100020000C9483000C9483000C9483000C94830044
:100030000C9483000C9483000C9483000C94830034
:100040000C94D9040C9483000C9449050C9423055A
:100050000C9483000C9483000C9483000C94830014
:100060000C9483000C9483000C9483000C94830004
:100070000C9483000C9483000C9483000C948300F4
:100080000C9483000C9483000C9483000C948300E4
:100090000C9483000C9483000C9483000C948300D4
:1000A0000C9483000C9483000C9483000C948300C4
:1000B0000C948300DF0B11241FBECFEFD8E0DEBF0E
:1000C000CDBF26E0A2EFB1E001C01D92A638B20775
:1000D000E1F711E0A0E0B1E0EAEDF8E102C005903F
:1000E0000D92A23FB107D9F710E0CBE5D0E004C0F4
:1000F0002197FE010E945A0CCA35D107C9F70E9408
:1001000087050C946B0C0C94000083E290E001973F
:10011000F1F708953FB7F89480912302909124025B
:10012000A0912502B091260226B5A89B05C02F3FBD
:1001300019F00196A11DB11D3FBFBA2FA92F982F0D
:100140008827BC01CD01620F711D811D911D42E008
:10015000660F771F881F991F4A95D1F708958F92D0
:100160009F92AF92BF92CF92DF92EF92FF924B019C
:100170005C010E948A006B017C010E948A006C195C
:100180007D098E099F09683E734081059105A8F39A
:1001900021E0821A9108A108B10888EEC80E83E018
:1001A000D81EE11CF11C81149104A104B10429F7AB
:1001B000FF90EF90DF90CF90BF90AF909F908F9087
:1001C00008952FB7F89460911F02709120028091DA
:1001D0002102909122022FBF0895FC01218D328DC2
:1001E000838D948DA901481B590BCA019370089502
:1001F000AF92BF92CF92DF92EF92FF920F931F9335
:10020000CF93DF936C017B018B01040F151FEB0172
:100210005E01AE18BF08C017D10759F06991D60129
:10022000ED91FC910190F081E02DC6010995892B9B
:1002300079F7C501DF91CF911F910F91FF90EF905A
:10024000DF90CF90BF90AF90089520914002309101
:1002500041028091420290914302281B390B337076
:1002600081E0232B09F480E00895FC01558D468D33
:10027000252F30E0842F90E0821B930B541710F051
:10028000CF96089501970895FC01218D328D838DBD
:10029000948D2817390779F0A38DB48DAE0FBF1F49
:1002A0005F968C91238D348D2F5F3F4F3370348F49
:1002B000238F90E008958FEF9FEF0895FC01218D2B
:1002C000328D838D948D2817390739F0838D948D65
:1002D000E80FF91F878D90E008958FEF9FEF089545
:1002E000FC01A68DA80FB92FB11DA15EBB4F2C91AB
:1002F000868D90E001968F739927868FA689B7899E
:100300002C93A089B1898C91837080648C93958D96
:10031000868D981306C00288F389E02D80818F7D39
:1003200080830895EF92FF920F931F93CF93DF93F3
:10033000EC0181E0888F9D8D8E8D98131AC0E8891D
:10034000F989808185FF15C09FB7F894EE89FF89F0
:100350006083E889F98980818370806480839FBF8E
:1003600081E090E0DF91CF911F910F91FF90EF908E
:100370000895F62E0D8D10E00F5F1F4F0F7311279C
:10038000E02E8E8D8E110CC00FB607FCFACFE889D7
:10039000F989808185FFF5CFCE010E947001F1CFF0
:1003A000ED8DEC0FFD2FF11DE15EFB4FF0829FB74D
:1003B000F8940D8FEA89FB8980818062CFCF682F06
:1003C00087E292E00C949201CF93DF93EC01888D49
:1003D0008823B9F0AA89BB89E889F9898C9185FDC0
:1003E00003C0808186FD0DC00FB607FCF7CF8C914E
:1003F00085FFF2CF808185FFEDCFCE010E94700195
:10040000E9CFDF91CF91089580E090E0892B29F02A
:100410000E94250181110E94000080E090E0892B5C
:1004200049F080E090E0892B29F00E9400008111C2
:100430000C94000008952091C00025FFFCCF9093FC
:10044000C6009091C00095FFFCCF8093C600089530
:10045000CF92DF92EF92FF92CF936B017C01CFEFAF
:10046000C40F24E0C202C0011124A701960104C0F8
:1004700056954795379527958A95D2F72F70822FF5
:1004800090E02A3058F4C0960E94DF01C15048F72E
:10049000CF91FF90EF90DF90CF900895C796F4CF63
:1004A0000F931F93FC011082118212821382DB01D1
:1004B0008D91806290ED980F9A3030F09FE9980FFF
:1004C0009630C0F499EA980F00811181228133811E
:1004D00084E0000F111F221F331F8A95D1F7092BCB
:1004E0000083118322833383415011F781E01F91F0
:1004F0000F91089580E0FBCF57985F9808955F981B
:10050000579A089555985D9808955D98559A08955D
:100510008F929F92AF92BF92CF92DF92EF92FF9213
:100520006C010E94E1004B015C01F12CE12C4C9923
:100530000BC00E94E100681979098A099B096C15B2
:100540007D058E059F0598F389B182958170FF9096
:10055000EF90DF90CF90BF90AF909F908F900895D5
:100560008F929F92AF92BF920F931F93CF93DF937F
:10057000CDB7DEB7A1970FB6F894DEBF0FBECDBFE3
:1005800019A2423008F44AE08E010F5D1F4F842EFD
:10059000912CB12CA12CA50194010E94310CE62FC5
:1005A000B901CA01EA3044F5E05DD801EE938D014E
:1005B000232B242B252B79F790E080E0109769F00E
:1005C000FD0101900020E9F73197AF014A1B5B0B59
:1005D000BD0187E292E00E94F800A1960FB6F89460
:1005E000DEBF0FBECDBFDF91CF911F910F91BF90A6
:1005F000AF909F908F900895E95CD7CF009769F0F6
:10060000FC0101900020E9F73197AF01481B590B1D
:10061000BC0187E292E00C94F80090E080E008953D
:10062000462FFC0160817181828193810E942802A2
:1006300084E391E00C94FE02BC01990F880B990BA6
:100640004AE00C94B002539A5D985B9829B15D9A88
:1006500030E1442755275D9897FD5B9A97FF5B989B
:10066000880F991F440F551F4A9941605D9A3A952A
:1006700091F753985B9822FB882780F990E0B0E0CF
:10068000A0E0DC019927882770E060E0842B952B9F
:10069000A62BB72B8093F2019093F301A093F40162
:1006A000B093F5010895FF920F931F93CF93DF93BB
:1006B000EC018B01FF24FA94C8010E94230380916E
:1006C000F2019091F301A091F401B091F50100972E
:1006D00021E0A207B10529F4FA94F11012C080E0DC
:1006E0000AC0009721E0A207B105C8F78883998363
:1006F000AA83BB8381E0DF91CF911F910F91FF907F
:1007000008958091FA019091FB0101969093FB016D
:100710008093FA01D1CF90E080E00E94230390E023
:1007200080E00E94230390E080E00E94230390E099
:1007300080E00E94230381E4815031F05D985B9852
:1007400099B15D9A92FDF8CF81E4815031F05D98C6
:100750005B9899B15D9A92FFF8CF8FE05D985B98B6
:1007600099B15D9A8150D1F70895CF92DF92EF92BF
:10077000FF921F93CF93DF93EC014C9B15C069014F
:100780007A01972F162F862F0E9423038091F20162
:100790009091F301A091F401B091F5010197A1406E
:1007A000B10520F00E948B0387E062C0209731F5ED
:1007B00017FD46C0C6010E9423038091F20190916B
:1007C000F301A091F401B091F501CFEF0197A140A1
:1007D000B10540F790E080E00E9423038091F20190
:1007E0009091F301A091F401B091F501009721E0FF
:1007F000A207B105B1F5C15069F7D4CF8A819B81B9
:100800000E9423038091F2019091F301A091F401E1
:10081000B091F5010197A140B10520F68881998139
:100820000E9423038091F2019091F301A091F401C1
:10083000B091F5010197A140B10508F4B9CFB2CF4D
:10084000C7010E9423038091F2019091F301A091CE
:10085000F401B091F5010197A140B10508F4AACFC8
:10086000A1CF8F3F9F4FA105B10509F09BCF8DE030
:10087000DF91CF911F91FF90EF90DF90CF9008957F
:100880009B01AC01211531054105510531F480E092
:100890009CE00E9423038DE0089560E874E290E0FC
:1008A00080E00E94B5038D3091F387E00895DF92D8
:1008B000EF92FF920F931F93CF93DF9300D000D05E
:1008C000CDB7DEB78C014C9B67C07A01972FD62E2F
:1008D000F8011082118212821382862F0E94230354
:1008E0008091F2019091F301A091F401B091F50192
:1008F0000197A140B10508F04DC0E114F10439F5AC
:1009000032E0F32ED7FC02C0FF24F39470E060E0E5
:10091000CE0101960E9453038823E1F1F801808102
:100920009181A281B381DC019927882749815A816D
:100930006B817C81842B952BA62BB72B8083918395
:10094000A283B383F1E0FF12DFCF8DE026C0F70171
:10095000828193810E9423038091F2019091F3019F
:10096000A091F401B091F5010197A140B10590F477
:10097000F701808191810E9423038091F20190917F
:10098000F301A091F401B091F5010197A140B105E7
:1009900008F4B6CF0E948B0387E00F900F900F9062
:1009A0000F90DF91CF911F910F91FF90EF90DF900B
:1009B00008951F920F920FB60F9211242F933F9319
:1009C0008F939F93AF93BF9380911F0290912002CA
:1009D000A0912102B091220230911E0223E0230F48
:1009E0002D3768F126E8230F0296A11DB11D209333
:1009F0001E0280931F0290932002A0932102B093C5
:100A000022028091230290912402A0912502B091AC
:100A100026020196A11DB11D80932302909324020A
:100A2000A0932502B0932602BF91AF919F918F9121
:100A30003F912F910F900FBE0F901F901895019628
:100A4000A11DB11DD4CF1F920F920FB60F9211248A
:100A50002F933F934F935F936F937F938F939F93C6
:100A6000AF93BF93EF93FF9387E292E00E947001F0
:100A7000FF91EF91BF91AF919F918F917F916F9176
:100A80005F914F913F912F910F900FBE0F901F904C
:100A900018951F920F920FB60F9211242F934F9318
:100AA0005F938F939F93EF93FF93E0913702F091C1
:100AB00038028081E0913D02F0913E0282FD25C026
:100AC0002081809140029091410201969370409163
:100AD0004202509143028417950759F0E091400279
:100AE000F0914102E95DFD4F278F90934102809381
:100AF0004002FF91EF919F918F915F914F912F91C4
:100B00000F900FBE0F901F9018958081F2CFCF935A
:100B1000DF93CDB7DEB7A4970FB6F894DEBF0FBE54
:100B2000CDBF789484B5836084BD85B5836085BD71
:100B300080916E00816080936E0092E090938100BE
:100B4000809181008160809381008091800081602C
:100B5000809380008091B10084608093B100809187
:100B6000B00081608093B000809191008360809399
:100B70009100809190008160809390008091A1000D
:100B800083608093A1008091A00081608093A00089
:100B900087E880937A001092C100E0913702F091CB
:100BA00038029083E0913302F09134021082E09198
:100BB0003502F091360281E0808310923F02E0918D
:100BC0003B02F0913C0286E08083E0913902F09193
:100BD0003A02808188698083E0913902F0913A027B
:100BE00080818F7D808388EE93E0A0E0B0E08093E9
:100BF0002B0290932C02A0932D02B0932E028AB167
:100C000083708AB98BB183708BB99E012F5F3F4F80
:100C1000190180914002909141022091420230914D
:100C20004302821B930B9370892B09F4DEC087E289
:100C300092E00E9444018D3009F08EC5F0901D02B3
:100C4000EF2DF0E0E350FE4F108231E03F15A8F4A5
:100C50008091FD011091FE011D8E1E8E1F8E18A227
:100C6000198E1A8E1B8E1C8E0EEF0F0D833609F413
:100C700085C12CF4813609F481C007E05BC28D3652
:100C800009F482C28237C9F7143609F017C5011179
:100C9000F4CF8FE891E00E94FE0210E000E050E007
:100CA00040E0B80160687162C1010E9457048D3054
:100CB00021F780E290E00E94DF0169817A818B81D7
:100CC0009C8148E00E9428020F5F1F4F08301105E9
:100CD00031F785E991E00E94FE0250E040E0B80162
:100CE00060687162C1010E9457048D3031F680E264
:100CF00090E00E94DF0169817A818B819C8148E0CC
:100D00000E9428020F5F1F4F0031110531F786E264
:100D1000A82E81E0B82E92E1E92E91E0F92E20E391
:100D2000C22E21E0D22EF50161915F016F7070E05B
:100D30006068756250E040E0C1010E945704082FCE
:100D40008D3009F09ACF8DE991E00E94FE02D70123
:100D50008D919D917D010E94FE0280E290E00E94B3
:100D6000DF0169817A818B819C8148E00E942802A1
:100D7000CA14DB04C1F684E391E0FBC101117DCF0D
:100D8000153309F4F6C09CF4123309F4ECC034F4C2
:100D9000113309F072CF0E9485021FC0133309F48A
:100DA000E5C0143309F069CF0E947C0216C01436E6
:100DB00009F4C7C04CF4163309F4DEC0173309F048
:100DC0005CCF56985E9809C0133791F080E391E0AC
:100DD000163709F052CF0E94FE020DE0602F87E225
:100DE00092E00E94920110921D020E94040211CF13
:100DF00080E480937C0080917A00806480937A0004
:100E000080917A0086FDFCCFA0917800B0917900A6
:100E100028E833E10E94530C2FEF33E040E050E02C
:100E20000E94310C890187E391E00E94FE02C80113
:100E300068EE73E00E941D0C8C0190E080E04AE0B7
:100E40000E94B0028EE290E00E94DF01043611059C
:100E500020F480E390E00E94DF01C8016AE070E0C6
:100E60000E941D0C90E080E04AE00E94B0028CE3FA
:100E700091E00E94FE028EE391E00E94FE0289B1A1
:100E80008295817090E00E941C0388E491E00E94AA
:100E9000FE0289B1082E000C990B892F881F882724
:100EA000881F90E00E941C0381E591E00E94FE02F1
:100EB00089B185FB882780F990E00E941C0389E5B1
:100EC00091E00E94FE0289B182FB882780F990E0C0
:100ED0000E941C0380E691E00E94FE026091FC01EA
:100EE00070E090E080E04AE00E94B00287E691E086
:100EF0000E94FE026091FA017091FB0190E080E097
:100F00004AE00E94B0021092FB011092FA0182E7BF
:100F100091E00E94FE026091F6017091F7018091CC
:100F2000F8019091F9014AE00E94B0021092F60196
:100F30001092F7011092F8011092F90184E391E008
:100F40004ACF4C9B9ACE90E080E00E9423036091B0
:100F5000F2017091F3018091F4019091F50145E067
:100F60000E942802EBCF5D9A559A37CF0E947F02EC
:100F700034CF5E98569A31CF5E9AFCCF123609F480
:100F800059C084F4123581F1133509F076CE0E94F0
:100F900085028AE090E00E94880281111ECF0E94A3
:100FA00082026BCE1337B9F1173709F454C01237E8
:100FB00009F063CE083009F060CE48E06FEF71E0D1
:100FC000CE014D960E945002882309F456CE4C9BC8
:100FD00054CE6D8D7E8D8F8D98A10E944004082F78
:100FE0008D3009F4FBCEA6C00E9482020E947F02CF
:100FF0006AE070E080E090E00E94AF000E947C0216
:101000006AE070E080E090E00E94AF004F9B35CE38
:101010004C9933CEE2CE0E9485020E947F0269E1A4
:1010200070E080E090E00E94AF000E947C0284EFBC
:1010300091E0B1CF4C9B21CE80E09CE00E94230345
:101040000E9485026AE070E080E090E00E94AF00BC
:101050004C99C3CEA4CF80ED97E0A0E0B0E0898F9B
:101060009A8FAB8FBC8F8F2D8B7F8A3009F005CE86
:1010700048E06FEF71E0CE014D960E945002882348
:1010800009F4FBCD0C3051F444E067E072E0CE018E
:1010900049960E945002882309F4EFCD4C9BEDCD78
:1010A000C98CDA8CEB8CFC8C6D8D7E8D8F8D98A12C
:1010B0000E9440048D3009F0E0CD0E94E1004B0118
:1010C0005C014C9B0BC00E94E100681979098A09F8
:1010D0009B09653071058105910598F3260137015B
:1010E000662477240E94E100DC01CB01881999096C
:1010F000AA09BB0984159505A605B70508F0BDCD5D
:10110000F601E81BF90BCF010E948802882309F43D
:10111000B4CD10E04C9B30C0143191F550E040E06C
:1011200060E871E2C1010E945704082F68E08D3029
:1011300009F45CC11091FD01612F012E000C770BA9
:1011400081EA91E00E94600C892B09F447CE1D369C
:1011500061F46091FE01062E000C770B82E891E0AD
:101160000E94600C892B09F039CE4C99E5C285EAC2
:1011700091E00E94FE0232CE143109F0B3CFCECFFF
:101180000E9485001F5FC6CFC12E012E000CDD0816
:10119000B6018CE791E00E94600C892B09F4D3C062
:1011A000083008F46ACD48E06FEF71E0CE014D964B
:1011B0000E94500206EF0F0D37E0E32E32E0F32ECF
:1011C000882309F45ACDB60185E891E00E94600CAD
:1011D000892B09F0BDC0B6018AE891E00E94600C3D
:1011E000F0E8CF2EA8E0DA2E892B21F080E4C82E7B
:1011F00094E0D92E173509F4B8C00CF0D5C01634D8
:1012000009F408C10CF0A8C0123409F4AEC01434BB
:1012100009F033CD043009F030CD44E0B701CE0100
:1012200049960E945002D82E882309F426CD898C35
:101230009A8C4D8C5E8C6F8C78A0133509F007C1A9
:10124000BB24B394F1E08F16F4E09F0608F0B12CB4
:101250008114910409F4F7C040FC0CC0E4E0CE2EE8
:1012600024E08216910440F472E0C72E31E0831628
:10127000910411F4CC24C394EC2CF12C3AA229A2B1
:1012800010E000E00E94E10060932F0270933002B2
:10129000809331029093320287E292E00E944401EF
:1012A00097FF6BC20E94E10020912F023091300223
:1012B0004091310250913202621B730B840B950BEB
:1012C00020912B0230912C0240912D0250912E0240
:1012D0006217730784079507F8F2E016F10609F024
:1012E000CCCCBB2041F1F10120E030E0A901542F2A
:1012F000432F322F22278191282B8E2F82198C1574
:10130000B0F384E060E8C81621F092E060E4C9120E
:1013100060E070E0DD2009F492C04D865E866F8645
:10132000788A7861CE010D960E94B503BB24B394F0
:101330008D3009F0B12C4C0C511C611C711C8E18A5
:101340009F08D12C85CF2FEFE22E21E0F22E3BCF4C
:10135000C12CB2E0DB2E4ECF1D3409F45BC0133537
:1013600009F458CF1C3409F088CC0D1186CC402FDD
:10137000B701CE0149960E945002882309F47DCC22
:10138000298D3A8D4B8D5C8D8D8D9E8DAF8DB8A145
:10139000898B9A8BAB8BBC8B6C2D70E07861CE0106
:1013A00041960E94B5031BCE1C3641F01CF5133646
:1013B00049F1163679F1123609F05FCC01115DCC96
:1013C0008D8D9E8DAF8DB8A18D8B9E8BAF8BB88F81
:1013D0006C2D70E07961AE014B5E5F4FC1010E94E0
:1013E0005704082F8D3009F0A5CE6D2DC1010E9444
:1013F0001003F3CC183731F01A3721F0173709F002
:101400003CCCDCCF011139CC6C2D70E07D6150E01B
:1014100040E0E4CF0D1131CC402FB701CE01499609
:101420000E945002882309F428CC298D3A8D4B8DD7
:101430005C8D6C2D70E07C6190E080E0B2CF7C61CF
:1014400090E080E071CFBB2009F417CCC6CC40FC03
:10145000DCC08401169507951695079501151105B1
:1014600009F4D3C087E292E00E94E4010E948A005E
:1014700069A37AA38BA39CA34C9BACC080E899E1A1
:101480000E9423038091F2019091F301A091F40155
:10149000B091F5010197A140B105A8F1F12CE12C23
:1014A0000E948B030E948A00AB01BC018091F6016F
:1014B0009091F701A091F801B091F901A9A0BAA00B
:1014C000CBA0DCA08A199B09AC09BD09840F951F2C
:1014D000A61FB71F8093F6019093F701A093F80120
:1014E000B093F9016701C016D10608F076C090E00C
:1014F00080E00E941B0290E080E00E941B022FEF20
:10150000C21AD20AF0CFC3010E9423038091F201D4
:101510009091F301A091F401B091F5010197A140E0
:10152000B10508F0BBCFC2010E9423038091F201F4
:101530009091F301A091F401B091F5010197A140C0
:10154000B10508F0ABCFF12CE12CC090FA01D0909E
:10155000FB018091FC01882331F035E03A95F1F7E9
:1015600000008150F8CF70E060E0CE0109960E9443
:101570005303882309F494CF8091FA019091FB01E1
:10158000C816D90639F08091FC01883218F48F5FB3
:101590008093FC0189859A850E941B0267018FEF69
:1015A000C81AD80A60E87DE1C016D10610F070E0D4
:1015B00060E0C1010E945303882309F471CF89813F
:1015C0009A810E941B0276010C151D0509F0BDCF02
:1015D000780168CFF12CE12C65CFCC24C3940E1593
:1015E0001F0509F0C12C30E020E042E0000F111F80
:1015F000221F331F4A95D1F7400E511E621E731EE3
:1016000033E083229924D12C01C0CD2C8114910484
:1016100009F450C040FC0CC014E060E884E0881677
:10162000910440F412E060E491E08916910411F411
:1016300011E060E019821A821B821C82C11023C053
:1016400019821A821B821C82C12C0FEF010FA8E0A5
:101650000A029001112469817A818B819C8104C0E6
:1016600096958795779567952A95D2F787E292E0C8
:101670000E949201015058F7410E511C611C711CCF
:10168000811A9108C0CF70E0DD2081F04D825E822A
:101690006F8278867961AE014B5F5F4FC1010E9416
:1016A0005704CC24C3948D3059F6CFCF7D6150E0E0
:1016B00040E0F4CFCC2009F4E0CA8FCB023008F42C
:1016C000DCCA42E06FEF71E0CE014D960E945002FD
:1016D000882309F4D2CA0A3009F05BC048E061E00F
:1016E00072E0CE0149960E945002882309F4C5CACF
:1016F0001735C1F00CF0C1CA113409F0BECA298DEA
:101700003A8D4B8D5C8D6D8D6F7070E0606870628E
:1017100093CE023009F0B1CA6D8D6F7070E06068D1
:1017200071624AC0298D3A8D4B8D5C8D6D8D6F70C5
:1017300070E06068746280CE86EB91E00E94FE02E9
:101740006091F2017091F3018091F4019091F501A3
:1017500045E00E9428020FCB8A3009F446CBE09185
:101760001D02EF3108F041CB91E09E0F90931D02D6
:10177000F0E0E350FE4F808338CBE9A1FAA18193DA
:10178000FAA3E9A30F5F1F4F0E151F0508F47ACDCA
:10179000A4CD173509F471CA0CF46FCA113609F4D7
:1017A000B8CF123709F069CA023009F066CA6D8DE8
:1017B0006F7070E06068756250E040E0B3CCE7E2C3
:1017C000F2E01382128288EE93E0A0E0B0E084831E
:1017D0009583A683B78384E091E09183808385EC31
:1017E00090E09587848784EC90E09787868780ECEB
:1017F00090E0918B808B81EC90E0938B828B82ECDC
:1018000090E0958B848B86EC90E0978B868B128E84
:10181000118E148E138E158E168E0895A29FB00110
:10182000B39FC001A39F700D811D1124911DB29F14
:10183000700D811D1124911D0895AA1BBB1B51E140
:1018400007C0AA1FBB1FA617B70710F0A61BB70B30
:10185000881F991F5A95A9F780959095BC01CD01D5
:101860000895A1E21A2EAA1BBB1BFD010DC0AA1FE1
:10187000BB1FEE1FFF1FA217B307E407F50720F0F9
:10188000A21BB30BE40BF50B661F771F881F991F74
:101890001A9469F760957095809590959B01AC01BD
:1018A000BD01CF0108950E940E0CB7FF0895821B61
:1018B000930B0895EE0FFF1F0590F491E02D09940E
:1018C000FC018191861721F08823D9F79927089583
:0A18D0003197CF010895F894FFCF7F
:1018DA00000000009201F8003501E401ED00440126
:1018EA005E01C901CD01D101D701DB01DF01E201AE
:1018FA00E601EA01EE01000108090A0B0C0D0E0FC0
:10190A00303130320D0A00564444200056002C2053
:10191A00465245455A4520002C20524553455420ED
:10192A00002C20424B505420002C2044534F2000BE
:10193A002C2047415020002C2052455452494553EF
:10194A0020002C2044554D505553200062776C429C
:10195A00574C534400627A42660077785746002013
:10196A0044302D37000D0A2041302D37000D0A2052
:10197A0000636D7200657272206E6F7420696E204A
:10198A0042444D0D0A00657272206C6173742072B4
:10199A006573706F6E736520005250430050434365
:1019AA00004154454D5000464152005642520053A0
:1019BA005200555350005353500053464300444677
:0219CA004300D8
:00000001FF
